:0400000080314928DA
:100008007E1480312000111F0A280B28472811135D
:1000180021001D101B082000C400C50121001C0878
:100028002000C600C7014608C700C60144084607A5
:10003800B8004508473DB900BA01B91BBA033A08E8
:10004800BB008031572080312000C9004908043E98
:1000580086008701403FF000413FF1004908023E19
:1000680086008701403FF200413FF30049088600BF
:100078008701403FF400413FF5008231FD22803185
:100088008231E12280317E10090080314B284A30CC
:100098008400003085000D3083313A2380317E1092
:1000A80020008331282B00302000B1000030B00040
:1000B8000030AF000A30AE000030A3000030A200CC
:1000C8000430A1000030A0003B08F3003A08F20019
:1000D8003908F1003808F0000030F7000030F60069
:1000E8000330F500E830F4008231AE228031730825
:1000F8002000A7007208A6007108A5007008A400D7
:1001080081315A21803120002308B5002208B4002B
:100118002108B3002008B2008131EA218031200093
:100128002F08D2002E08D1000030A3000030A20012
:100138000430A1000030A0003B08F3003A08F200A8
:100148003908F1003808F0000030F7000030F600F8
:100158000330F500E830F4008231AE2280317308B4
:100168002000A7007208A6007108A5007008A40066
:1001780081315A21803120002308C3002208C2009F
:100188002108C1002008C0000030B1000030B000D4
:100198000030AF000A30AE000030A3000030A200EB
:1001A8000030A1000A30A0004308A7004208A600BA
:1001B8004108A5004008A40081315A21803120005F
:1001C8002308B5002208B4002108B3002008B200B3
:1001D8008131EA21803120002F08D4002E08D30075
:1001E8000030A3000030A2000430A1000030A000BD
:1001F8003B08F3003A08F2003908F1003808F0002B
:100208000030F7000030F6000330F500E830F40065
:100218008231AE22803173082000A7007208A60040
:100228007108A5007008A40081315A21803120008E
:100238002308C3002208C2002108C1002008C0000A
:100248000030A3000030A2000030A1000A30A00056
:100258004308A7004208A6004108A5004008A400DA
:1002680081315A21803120002308BF002208BE00B6
:100278002108BD002008BC000030A3000030A20007
:100288000030A1000A30A0003F08A7003E08A600E1
:100298003D08A5003C08A40081315A218031200086
:1002A8002108D6002008D500513008002000A901F7
:1002B800A31F5F2960296D29A009A109A209A30923
:1002C800A00A0319A10A0319A20A0319A30AA9017A
:1002D800A90AA71F702971298029A409A509A609B7
:1002E800A709A40A0319A50A0319A60A0319A70A44
:1002F8000130FC007C08A9060030AD000030AC00DD
:100308000030AB000030AA00230822042104200496
:1003180003198F299029D129A801A80A9E290130FB
:10032800A035A10DA20DA30D890B94290130FC0065
:100338007C08A807A31FA129A22993290130AA355F
:10034800AB0DAC0DAD0D890BA32923082702031DA6
:10035800B72922082602031DB72921082502031DF3
:10036800B72920082402031CBA29BB29C42920085C
:10037800A4022108A53B2208A63B2308A73B2A1470
:100388000130A336A20CA10CA00C890BC5290130A1
:10039800A802031DD029D129A22929080319D52982
:1003A800D629E129AA09AB09AC09AD09AA0A03199A
:1003B800AB0A0319AC0A0319AD0A2D08A3002C08CF
:1003C800A2002B08A1002A08A00008002000B701FD
:1003D800B51FEF29F029FD29B209B309B409B509F8
:1003E800B20A0319B30A0319B40A0319B50AB70103
:1003F800B70AB11F002A012A0C2AAE09AF09B009B1
:10040800B109AE0A0319AF0A0319B00A0319B10AF0
:10041800310830042F042E040319132A142A4D2AF4
:10042800B601B60A222A0130AE35AF0DB00DB10DB6
:10043800890B182A0130FD007D08B607B11F252A4F
:10044800262A172A31083502031D342A30083402B7
:10045800031D342A2F083302031D342A2E083202C2
:10046800031C372A382A402A2E08B2022F08B33B29
:100478003008B43B3108B53B0130B136B00CAF0C95
:10048800AE0C890B412A0130B602031D4C2A4D2AB5
:10049800262A37080319512A522A5D2AB209B309B4
:1004A800B409B509B20A0319B30A0319B40A03193E
:1004B800B50A3508B1003408B0003308AF00320877
:1004C800AE000800FC302100990519088739683802
:1004D800990023000C148C100C118C110C122100A3
:1004E8000C148C100C118C110C120C138C1323008F
:1004F8008D100D118D110D128D120D138D132100FC
:100508000D108D140D118D110D128D120D138D13EB
:100518001D10220097170330970421001E11033085
:100528009E0411172000111321001708C13914382F
:10053800970022008C100C118C110C120C138C13C8
:100548000D108D110D128D128B170B17833110237F
:10055800823108000030FB000030FA000030F9005A
:100568000030F800701CB92ABA2AC22A7408F807A1
:100578007508F93D7608FA3D7708FB3D0130F435FA
:10058800F50DF60DF70D890BC32A0130F336F20C81
:10059800F10CF00C890BCA2A7308720471047004F8
:1005A800031DD72AD82AB62A7B08F3007A08F20056
:1005B8007908F1007808F0000800F200EE2A7208C5
:1005C8008600870101088331312382310130F1002F
:1005D8007108F2077208860087010108031DF52AD1
:1005E800F62AE32A21001708C13914389700630056
:1005F80008007008303E2000CA002E30CB00720878
:10060800303ECC007408303ECD002030CE0056304D
:10061800CF00D0014A30080022001E1023009E148B
:100628009E161F171E121E131E1519309B009D17AC
:10063800080021001D141E088F3910389E008330D1
:100648009D059E179D1408008231662283318331EF
:100658001D2383312B2B80314928F000700823009B
:100668009A009E1C382B392B352B0800640080011A
:080678000131890B3B2B00341A
:020000040001F9
:08000000FF3FFF3FFF3FFF3F00
:04000E00FC3FFF3E76
:00000001FF
