:0400000080314928DA
:100008007E1480312000111F0A280B28472811135D
:1000180021001D101B082000C200C30121001C087C
:100028002000C400C5014408C500C40142084407B3
:10003800B6004308453DB700B801B71BB8033808F8
:10004800B9008031572080312000C7004708043E9E
:1000580086008701403FF000413FF1004708023E1B
:1000680086008701403FF200413FF30047088600C1
:100078008701403FF400413FF5008231752280310D
:100088008231592280317E10090080314B28483056
:100098008400003085000D308231A72280317E1027
:1000A80020008231952A00302000B0000030AF00D7
:1000B8000030AE000A30AD000030F7000030F60026
:1000C8000330F500E830F4003908F3003808F2008E
:1000D8003708F1003608F000823126228031700896
:1000E8002000BA007108BB007208BC007308BD008C
:1000F8000A30BD36BC0CBB0CBA0C890B7D283D08F8
:10010800B4003C08B3003B08B2003A08B1008131A2
:100118009621803120002E08D0002D08CF00003015
:10012800B0000030AF000030AE000A30AD00003043
:10013800A3000030A2000030A1000A30A000003067
:10014800F7000030F6000330F500E830F400390815
:10015800F3003808F2003708F1003608F000823161
:100168002622803170082000BA007108BB0072088E
:10017800BC007308BD000A30BD36BC0CBB0CBA0C01
:10018800890BC0283D08A7003C08A6003B08A5002D
:100198003A08A40081313B21803120002308B400B3
:1001A8002208B3002108B2002008B100813196214D
:1001B800803120002E08D2002D08D1000030A30085
:1001C8000030A2000030A1000A30A0000030F70083
:1001D8000030F6000330F500E830F4003908F30089
:1001E8003808F2003708F1003608F000823126227C
:1001F800803170082000BA007108BB007208BC008A
:100208007308BD000A30BD36BC0CBB0CBA0C890B98
:1002180007293D08A7003C08A6003B08A5003A08A6
:10022800A40081313B21803120002308C10022082D
:10023800C0002108BF002008BE000030A300003025
:10024800A2000030A1000A30A0004108A700400821
:10025800A6003F08A5003E08A40081313B2180315B
:1002680020002108D4002008D3004F3008000030B7
:100278002000AB000030AA000030A9000030A80020
:10028800230822042104200403194B294C298D2911
:10029800AC01AC0A5A290130A035A10DA20DA30D5D
:1002A800890B50290130FC007C08AC07A31F5D298D
:1002B8005E294F290130A835A90DAA0DAB0D890B70
:1002C8005F2923082702031D732922082602031D1C
:1002D800732921082502031D732920082402031C01
:1002E8007629772980292008A4022108A53B22081D
:1002F800A63B2308A73B28140130A336A20CA10C67
:10030800A00C890B81290130AC02031D8C298D2991
:100318005E292B08A3002A08A2002908A1002808A2
:10032800A0000800200030082F042E042D04031913
:100338009E299F29D829B501B50AAD290130AD35C7
:10034800AE0DAF0DB00D890BA3290130FD007D085E
:10035800B507B01FB029B129A22930083402031DFE
:10036800BF292F083302031DBF292E083202031D9F
:10037800BF292D083102031CC229C329CB292D0806
:10038800B1022E08B23B2F08B33B3008B43B013012
:10039800B036AF0CAE0CAD0C890BCC290130B502D0
:1003A800031DD729D829B1293408B0003308AF0074
:1003B8003208AE003108AD000800FC302100990574
:1003C800190887396838990023000C148C100C110F
:1003D8008C110C1221000C148C100C118C110C12A5
:1003E8000C138C1323008D100D118D110D128D120D
:1003F8000D138D1321000D108D140D118D110D127B
:100408008D120D138D131D102200971703309704BA
:1004180021001E1103309E04111720001113210022
:100428001708C1391438970022000C120C138C13CA
:100438000D108D110D128D128B170B17823188221A
:10044800813108000030FB000030FA000030F9006C
:100458000030F800701C312A322A3A2A7408F8074A
:100468007508F93D7608FA3D7708FB3D0130F4350B
:10047800F50DF60DF70D890B3B2A0130F336F20C1A
:10048800F10CF00C890B422A730872047104700491
:10049800031D4F2A502A2E2A7B08F3007A08F200FF
:1004A8007908F1007808F0000800F200662A72085E
:1004B80086008701010882319E2282310130F100D5
:1004C8007108F2077208860087010108031D6D2A6A
:1004D8006E2A5B2A21001708C13914389700630077
:1004E80008007008303E2000C8002E30C90072088D
:1004F800303ECA007408303ECB002030CC00563065
:10050800CD00CE014830080022001E1023009E14A2
:100518009E161F171E121E131E1519309B009D17BD
:1005280008008131E12182318231AD228231982A5D
:1005380080314928F000700823009A009E1CA52AE3
:10054800A62AA22A0800640080010131890BA82A82
:0A055800003421001D149D1408005A
:020000040001F9
:08000000FF3FFF3FFF3FFF3F00
:04000E00FC3FFF3E76
:00000001FF
