:0400000080318A2899
:100008007E1480310B1D09280A2834282830200046
:100018004A064B04031D1128122824280310220025
:100028000C1E0314031819281C2822000C161E285D
:1000380022000C128431A32480312000CA01CB0194
:100048000130CA070030CB3D9E3095000B114B089C
:10005800F8004A08F7004C088231B322803188281A
:100068002000111F382839288828031022000C1F67
:10007800031403184028432822000C17452822009F
:100088000C132000111321001D101B082000C400B0
:10009800C50121001C082000C600C7014608C7008A
:1000A800C60144084607B8004508473DB900BA01EB
:1000B800B91BBA033A08BB008031A4208031200064
:1000C800C90049088331E42380312000CC00490865
:1000D800043E86008701403FF000413FF100490897
:1000E800023E86008701403FF200413FF300490885
:1000F80086008701403FF400413FF50084317624B3
:10010800803184314C2480317E10090080318C2864
:100118006230840084308500A0308600003087007B
:1001280014308431B72480314A308400003085008F
:1001380016308431BD2480317E1020008431C32CD8
:1001480000302000B1000030B0000030AF000A30AD
:10015800AE000030A3000030A2000430A10000303F
:10016800A0003B08F3003A08F2003908F10038080B
:10017800F0000030F7000030F6000330F500E830FA
:10018800F40084311924803173082000A700720814
:10019800A6007108A5007008A4008131A72180314C
:1001A80020002308B5002208B4002108B300200865
:1001B800B20082313722803120002F08DB002E0860
:1001C800DA000030A3000030A2000430A1000030A3
:1001D800A0003B08F3003A08F2003908F10038089B
:1001E800F0000030F7000030F6000330F500E8308A
:1001F800F40084311924803173082000A7007208A4
:10020800A6007108A5007008A4008131A7218031DB
:1002180020002308C3002208C2002108C1002008CA
:10022800C0000030B1000030B0000030AF000A302C
:10023800AE000030A3000030A2000030A1000A3058
:10024800A0004308A7004208A6004108A5004008EE
:10025800A4008131A721803120002308B50022089D
:10026800B4002108B3002008B2008231372280315F
:1002780020002F08DD002E08DC000030A30000302D
:10028800A2000430A1000030A0003B08F3003A08A7
:10029800F2003908F1003808F0000030F7000030AB
:1002A800F6000330F500E830F40084311924803179
:1002B80073082000A7007208A6007108A50070083E
:1002C800A4008131A721803120002308C30022081F
:1002D800C2002108C1002008C0000030A30000307F
:1002E800A2000030A1000A30A0004308A70042087D
:1002F800A6004108A5004008A4008131A72180314B
:1003080020002308BF002208BE002108BD002008E5
:10031800BC000030A3000030A2000030A1000A3069
:10032800A0003F08A7003E08A6003D08A5003C081D
:10033800A4008131A721803120002108DF00200896
:10034800DE005A3008002000A901A31FAC29AD29FE
:10035800BA29A009A109A209A309A00A0319A10A97
:100368000319A20A0319A30AA901A90AA71FBD29EB
:10037800BE29CD29A409A509A609A709A40A031914
:10038800A50A0319A60A0319A70A0130FC007C086C
:10039800A9060030AD000030AC000030AB000030E2
:1003A800AA0023082204210420040319DC29DD29DA
:1003B8001E2AA801A80AEB290130A035A10DA20D1B
:1003C800A30D890BE1290130FC007C08A807A31FB5
:1003D800EE29EF29E0290130AA35AB0DAC0DAD0DA2
:1003E800890BF02923082702031D042A2208260264
:1003F800031D042A21082502031D042A20082402BB
:10040800031C072A082A112A2008A4022108A53B50
:100418002208A63B2308A73B2A140130A336A20CC6
:10042800A10CA00C890B122A0130A802031D1D2A59
:100438001E2AEF2929080319222A232A2E2AAA0963
:10044800AB09AC09AD09AA0A0319AB0A0319AC0A2E
:100458000319AD0A2D08A3002C08A2002B08A1003F
:100468002A08A00008002000B701B51F3C2A3D2A31
:100478004A2AB209B309B409B509B20A0319B30A79
:100488000319B40A0319B50AB701B70AB11F4D2AEF
:100498004E2A592AAE09AF09B009B109AE0A0319A3
:1004A800AF0A0319B00A0319B10A310830042F043E
:1004B8002E040319602A612A9A2AB601B60A6F2AFD
:1004C8000130AE35AF0DB00DB10D890B652A013085
:1004D800FD007D08B607B11F722A732A642A310805
:1004E8003502031D812A30083402031D812A2F0892
:1004F8003302031D812A2E083202031C842A852A0E
:100508008D2A2E08B2022F08B33B3008B43B3108BD
:10051800B53B0130B136B00CAF0CAE0C890B8E2A4E
:100528000130B602031D992A9A2A732A370803193B
:100538009E2A9F2AAA2AB209B309B409B509B20AA0
:100548000319B30A0319B40A0319B50A3508B10027
:100558003408B0003308AF003208AE000800F900D4
:100568000330F0000030F1007808F3007708F2005B
:1005780083311223823170087104031DC42AC52AED
:10058800D22A790886008701403FF000413FF100F8
:100598008331A923823122008C118C140330F0009E
:1005A8000030F1007808F3007708F2008331122355
:1005B800823170037104031DE22AE32AF12A7908C3
:1005C800023E86008701403FF000413FF100833141
:1005D800A923823122000C118C150330F000003061
:1005E800F1007808F3007708F20083311223823192
:1005F800023070067104031D022B032B112B79089E
:10060800043E86008701403FF000413FF1008331FE
:10061800A923823122008C100C150800F601F31F63
:10062800162B172B1E2BF209F309F20A0319F30AEA
:10063800F601F60AF11F212B222B272BF009F109CD
:10064800F00A0319F10A7008710403192C2B2D2BD9
:10065800562BF501F50A392B0130F035F10D890BD0
:10066800312B0130F4007408F507F11F3C2B3D2BAA
:10067800302B71087302031D432B70087202031C90
:10068800462B472B4B2B7008F2027108F33B0130C5
:10069800F136F00C890B4C2B0130F502031D552B5C
:1006A800562B3D2B760803195A2B5B2B602BF2092E
:1006B800F309F20A0319F30A7308F1007208F0004B
:1006C8000800FC3021009905190887396838990015
:1006D80023000C148C100C118C110C1221000C141A
:1006E8008C100C118C110C120C138C1323008D1010
:1006F8000D118D110D128D120D138D1321000D107A
:100708008D140D118D110D128D120D138D131D10D9
:10071800220097170330970421001E1103309E040E
:1007280011172000111322008C140C158C150C12B3
:100738000C138C130D108D110D128D128431892418
:1007480083318431962483310800701BAC2BAF2B86
:1007580022000C16B12B22000C12F01AB42BB72B66
:1007680022000C17B92B22000C13701ABC2BBF2BBC
:1007780022008C17C12B22008C13F019C42BC72B15
:1007880022000D14C92B22000D107019CC2BCF2B71
:1007980022008D15D12B22008D11F018D42BD72BC8
:1007A80022000D16D92B22000D1270080139F20013
:1007B800F20EF20D0D087206DF3972068D00080080
:1007C8002000B400A030860000308700203084006C
:1007D800003085001430F00016001A00F00BF02BE2
:1007E8003408860087010135203E86008701403F96
:1007F800D400413FD5003408023E86008701013508
:10080800203E86008701403FD600413FD70034088C
:10081800043E860087010135203E86008701403F5F
:10082800D800413FD900543008000030FB000030A8
:10083800FA000030F9000030F800701C242C252C38
:100848002D2C7408F8077508F93D7608FA3D7708E5
:10085800FB3D0130F435F50DF60DF70D890B2E2C07
:100868000130F336F20CF10CF00C890B352C7308BF
:10087800720471047004031D422C432C212C7B0844
:10088800F3007A08F2007908F1007808F00008000F
:10089800F200592C72088600870101088431AE24C1
:1008A80084310130F1007108F2077208860087016F
:1008B8000108031D602C612C4E2C08007E34003486
:1008C800303400346D340034793400343334003437
:1008D8005B3400345F340034703400347F340034C7
:1008E8007B3400347008303E2000CD002E30CE001E
:1008F8007208303ECF007408303ED0002030D1005E
:100908005630D200D3014D30080022001E102300BB
:100918009E149E161F171E121E131E1519309B00BB
:100928009D170800210095129511073095048B1723
:100938000B178B160B119E30200095000800210024
:100948001D141E088F3910389E0083309D059E1790
:100958009D140800F000700823009A009E1CB52C16
:10096800B62CB22C0800FE0012001E00FE0BB82C9C
:100978000034640080010131890BBE2C00348331BE
:0A09880065238431C62C80318A28D3
:020000040001F9
:08000000FF3FFF3FFF3FFF3F00
:04000E00E43FFF3E8E
:00000001FF
