:0400000080318A2899
:100008007E1480310B1D09280A2834282830200046
:1000180048064904031D1128122824280310220029
:100028000C1E0314031819281C2822000C161E285D
:1000380022000C128431402480312000C801C901FB
:100048000130C8070030C93D9E3095000B114908A2
:10005800F8004808F7004A0881318821803188284B
:100068002000111F382839288828031022000C1F67
:10007800031403184028432822000C17452822009F
:100088000C132000111321001D101B082000C200B2
:10009800C30121001C082000C400C5014408C50094
:1000A800C40142084407B6004308453DB700B801FB
:1000B800B71BB8033808B9008031A420803120006C
:1000C800C70047088331662380312000CA004708EB
:1000D800043E86008701403FF000413FF100470899
:1000E800023E86008701403FF200413FF300470887
:1000F80086008701403FF400413FF5008331F82333
:1001080080318331CE2380317E10090080318C28E4
:10011800E430840083308500A030860000308700FA
:10012800143084312E24803148308400003085001A
:1001380016308431342480317E10200084313A2CEA
:1001480000302000B0000030AF000030AE000A30B0
:10015800AD000030F7000030F6000330F500E8305D
:10016800F4003908F3003808F2003708F1003608BF
:10017800F00083319B23803170082000BA00710899
:10018800BB007208BC007308BD000A30BD36BC0C49
:10019800BB0CBA0C890BCA283D08B4003C08B30054
:1001A8003B08B2003A08B1008231E02280312000D9
:1001B8002E08D9002D08D8000030B0000030AF005C
:1001C8000030AE000A30AD000030A3000030A200BD
:1001D8000030A1000A30A0000030F7000030F6001F
:1001E8000330F500E830F4003908F3003808F2006D
:1001F8003708F1003608F00083319B2380317008FE
:100208002000BA007108BB007208BC007308BD006A
:100218000A30BD36BC0CBB0CBA0C890B0D293D0845
:10022800A7003C08A6003B08A5003A08A4008131B5
:10023800E721803120002308B4002208B3002108F8
:10024800B2002008B1008231E022803120002E085F
:10025800DB002D08DA000030A3000030A2000030D7
:10026800A1000A30A0000030F7000030F60003308B
:10027800F500E830F4003908F3003808F2003708D0
:10028800F1003608F00083319B238031700820008C
:10029800BA007108BB007208BC007308BD000A30C0
:1002A800BD36BC0CBB0CBA0C890B54293D08A70001
:1002B8003C08A6003B08A5003A08A4008131E721C4
:1002C800803120002308C1002208C0002108BF0097
:1002D8002008BE000030A3000030A2000030A100BA
:1002E8000A30A0004108A7004008A6003F08A50062
:1002F8003E08A4008131E721803120002108DD007B
:100308002008DC0058300800F9000330F000003005
:10031800F1007808F3007708F20082314222813137
:1003280070087104031D99299A29A729790886005C
:100338008701403FF000413FF10083312B23813199
:1003480022008C118C140330F0000030F100780882
:10035800F3007708F2008231422281317003710480
:10036800031DB729B829C6297908023E86008701E6
:10037800403FF000413FF10083312B2381312200BF
:100388000C118C150330F0000030F1007808F300F0
:100398007708F200823142228131023070067104FE
:1003A800031DD729D829E6297908043E8600870144
:1003B800403FF000413FF10083312B23813122007F
:1003C8008C100C15080000302000AB000030AA008B
:1003D8000030A9000030A8002308220421042004CA
:1003E8000319F729F829392AAC01AC0A062A013081
:1003F800A035A10DA20DA30D890BFC290130FC002D
:100408007C08AC07A31F092A0A2AFB290130A83552
:10041800A90DAA0DAB0D890B0B2A23082702031D72
:100428001F2A22082602031D1F2A21082502031D50
:100438001F2A20082402031C222A232A2C2A2008E7
:10044800A4022108A53B2208A63B2308A73B2814A1
:100458000130A336A20CA10CA00C890B2D2A013067
:10046800AC02031D382A392A0A2A2B08A3002A08B5
:10047800A2002908A1002808A0000800F601F31F1F
:10048800462A472A4E2AF209F309F20A0319F30AFF
:10049800F601F60AF11F512A522A572AF009F109E2
:1004A800F00A0319F10A7008710403195C2A5D2A1D
:1004B800862AF501F50A692A0130F035F10D890B14
:1004C800612A0130F4007408F507F11F6C2A6D2ABF
:1004D800602A71087302031D732A70087202031CD4
:1004E800762A772A7B2A7008F2027108F33B0130DA
:1004F800F136F00C890B7C2A0130F502031D852AA0
:10050800862A6D2A760803198A2A8B2A902AF209E4
:10051800F309F20A0319F30A7308F1007208F000EC
:100528000800FC30210099051908873968389900B6
:1005380023000C148C100C118C110C1221000C14BB
:100548008C100C118C110C120C138C1323008D10B1
:100558000D118D110D128D120D138D1321000D101B
:100568008D140D118D110D128D120D138D131D107B
:10057800220097170330970421001E088F3910387E
:100588009E0083309D059E171E1103309E0411178F
:100598002000111322008C140C158C150C120C134E
:1005A8008C130D108D110D128D1284310B24823194
:1005B8008431182482310800200030082F042E04CA
:1005C8002D040319E82AE92A222BB501B50AF72ACE
:1005D8000130AD35AE0DAF0DB00D890BED2A0130F0
:1005E800FD007D08B507B01FFA2AFB2AEC2A30085F
:1005F8003402031D092B2F083302031D092B2E0873
:100608003202031D092B2D083102031C0C2B0D2B64
:10061800152B2D08B1022E08B23B2F08B33B30082A
:10062800B43B0130B036AF0CAE0CAD0C890B162BB9
:100638000130B502031D212B222BFB2A3408B00000
:100648003308AF003208AE003108AD000800701B57
:100658002E2B312B22000C16332B22000C12F01AF1
:10066800362B392B22000C173B2B22000C13701A47
:100678003E2B412B22008C17432B22008C13F019A0
:10068800462B492B22000D144B2B22000D107019FC
:100698004E2B512B22008D15532B22008D11F01853
:1006A800562B592B22000D165B2B22000D127008B9
:1006B8000139F200F20EF20D0D087206DF397206EA
:1006C8008D0008002000B400A030860000308700AC
:1006D80020308400003085001430F00016001A0025
:1006E800F00B722B3408860087010135203E860006
:1006F8008701403FD200413FD3003408023E8600C4
:1007080087010135203E86008701403FD400413FE4
:10071800D5003408043E860087010135203E860056
:100728008701403FD600413FD700523008000030D3
:10073800FB000030FA000030F9000030F800701CAF
:10074800A62BA72BAF2B7408F8077508F93D760878
:10075800FA3D7708FB3D0130F435F50DF60DF70D40
:10076800890BB02B0130F336F20CF10CF00C890B2D
:10077800B72B7308720471047004031DC42BC52BB6
:10078800A32B7B08F3007A08F2007908F1007808B7
:10079800F0000800F200DB2B7208860087010108D0
:1007A8008431252483310130F1007108F207720881
:1007B800860087010108031DE22BE32BD02B0800DC
:1007C8007E340034303400346D34003479340034ED
:1007D800333400345B3400345F3400347034003414
:1007E8007F3400347B3400347008303E2000CB0066
:1007F8002E30CC007208303ECD007408303ECE005A
:100808002030CF005630D000D1014B3008002200F4
:100818001E1023009E149E161F171E121E131E154F
:1008280019309B009D17080021009512951107307B
:1008380095048B170B178B160B119E302000950013
:100848000800F000700823009A009E1C2C2C2D2C08
:10085800292C0800FE0012001E00FE0B2F2C00346D
:10086800640080010131890B352C003482319522D6
:1008780084313D2C80318A2821001D149D140800E4
:020000040001F9
:08000000FF3FFF3FFF3FFF3F00
:04000E00E43FFF3E8E
:00000001FF
