:0400000080318028A3
:100008007E1480310B1D09280A2828286430200016
:100018004A064B04031D112812281828843142244B
:1000280080312000CA01CB010130CA070030CB3D26
:10003800D93095000B114B08F8004A08F7004D0815
:1000480081317E2180317E282000111F2C282D2807
:100058007828111321001D101B082000C200C301BD
:1000680021001C082000C400C5014408C500C401C3
:1000780042084407B6004308453DB700B801B71B1E
:10008800B8033808B90080319A2080312000C700B1
:10009800470883315C2380312000CD004708043EA7
:1000A80086008701403FF000413FF1004708023ECB
:1000B80086008701403FF200413FF3004708860071
:1000C8008701403FF400413FF5008331F823803138
:1000D8002000CC000430F1000030F2004C08F3009E
:1000E8008331C42380317E28111E7B287C287E28FA
:1000F80011126E287E10090080318228E4308400B5
:1001080083308500A03086000030870014308431A9
:100118003024803148308400003085001930843123
:10012800362480317E10200084313C2C00302000A1
:10013800B0000030AF000030AE000A30AD00003033
:10014800F7000030F6000330F500E830F400390815
:10015800F3003808F2003708F1003608F000833160
:100168009123803170082000BA007108BB00720822
:10017800BC007308BD000A30BD36BC0CBB0CBA0C01
:10018800890BC0283D08B4003C08B3003B08B20006
:100198003A08B1008231D622803120002E08DC00D6
:1001A8002D08DB000030B0000030AF000030AE009A
:1001B8000A30AD000030A3000030A2000030A100DA
:1001C8000A30A0000030F7000030F6000330F500D8
:1001D800E830F4003908F3003808F2003708F10075
:1001E8003608F00083319123803170082000BA006E
:1001F8007108BB007208BC007308BD000A30BD3628
:10020800BC0CBB0CBA0C890B03293D08A7003C08A1
:10021800A6003B08A5003A08A4008131DD21803101
:1002280020002308B4002208B3002108B2002008E7
:10023800B1008231D622803120002E08DE002D0840
:10024800DD000030A3000030A2000030A1000A3019
:10025800A0000030F7000030F6000330F500E83069
:10026800F4003908F3003808F2003708F1003608BE
:10027800F00083319123803170082000BA007108A2
:10028800BB007208BC007308BD000A30BD36BC0C48
:10029800BB0CBA0C890B4A293D08A7003C08A600EC
:1002A8003B08A5003A08A4008131DD2180312000F7
:1002B8002308C1002208C0002108BF002008BE0092
:1002C8000030A3000030A2000030A1000A30A000D6
:1002D8004108A7004008A6003F08A5003E08A40062
:1002E8008131DD21803120002108E0002008DF0075
:1002F8005B300800F9000330F0000030F1007808A6
:10030800F3007708F20082313822813170087104D5
:10031800031D8F2990299D29790886008701403F70
:10032800F000413FF10083312123813122008C11FB
:100338008C140330F0000030F1007808F3007708DF
:10034800F20082313822813170037104031DAD2916
:10035800AE29BC297908023E86008701403FF0009B
:10036800413FF10083312123813122000C118C158A
:100378000330F0000030F1007808F3007708F2004D
:10038800823138228131023070067104031DCD2973
:10039800CE29DC297908043E86008701403FF00019
:1003A800413FF10083312123813122008C100C154B
:1003B800080000302000AB000030AA000030A9007F
:1003C8000030A80023082204210420040319ED2981
:1003D800EE292F2AAC01AC0AFC290130A035A10D69
:1003E800A20DA30D890BF2290130FC007C08AC0793
:1003F800A31FFF29002AF1290130A835A90DAA0D4C
:10040800AB0D890B012A23082702031D152A220890
:100418002602031D152A21082502031D152A200876
:100428002402031C182A192A222A2008A4022108B7
:10043800A53B2208A63B2308A73B28140130A33676
:10044800A20CA10CA00C890B232A0130AC02031DBD
:100458002E2A2F2A002A2B08A3002A08A2002908DE
:10046800A1002808A0000800F601F31F3C2A3D2A35
:10047800442AF209F309F20A0319F30AF601F60A03
:10048800F11F472A482A4D2AF009F109F00A0319F1
:10049800F10A700871040319522A532A7C2AF501BB
:1004A800F50A5F2A0130F035F10D890B572A013022
:1004B800F4007408F507F11F622A632A562A7108A6
:1004C8007302031D692A70087202031C6C2A6D2AC4
:1004D800712A7008F2027108F33B0130F136F00C12
:1004E800890B722A0130F502031D7B2A7C2A632AB4
:1004F80076080319802A812A862AF209F309F20A62
:100508000319F30A7308F1007208F0000800FC30C0
:1005180021009905190887396838990023000C14B7
:100528008C100C118C110C1221000C148C100C1155
:100538008C110C120C138C1323008D100D118D11BE
:100548000D128D120D138D1321000D108D140D1128
:100558008D110D128D120D138D131D10220097177A
:100568000330970421001E088F3910389E0083300D
:100578009D059E171E1103309E04111720001113AC
:1005880022008C140C158C150C120C138C130D10E6
:100598008D110D128D1284310B24823184311A246D
:1005A80082310800200030082F042E042D0403197E
:1005B800DE2ADF2A182BB501B50AED2A0130AD3540
:1005C800AE0DAF0DB00D890BE32A0130FD007D089B
:1005D800B507B01FF02AF12AE22A30083402031DB9
:1005E800FF2A2F083302031DFF2A2E083202031D9B
:1005F800FF2A2D083102031C022B032B0B2B2D087D
:10060800B1022E08B23B2F08B33B3008B43B01308F
:10061800B036AF0CAE0CAD0C890B0C2B0130B5020B
:10062800031D172B182BF12A3408B0003308AF002C
:100638003208AE003108AD000800701B242B272BB0
:1006480022000C16292B22000C12F01A2C2B2F2B0F
:1006580022000C17312B22000C13701A342B372B65
:1006680022008C17392B22008C13F0193C2B3F2BBE
:1006780022000D14412B22000D107019442B472B1A
:1006880022008D15492B22008D11F0184C2B4F2B71
:1006980022000D16512B22000D1270080139F200AC
:1006A800F20EF20D0D087206DF3972068D00080091
:1006B8002000B400A030860000308700203084007D
:1006C800003085001430F00016001A00F00B682B7B
:1006D8003408860087010135203E86008701403FA7
:1006E800D500413FD6003408023E86008701013517
:1006F800203E86008701403FD700413FD80034089C
:10070800043E860087010135203E86008701403F70
:10071800D900413FDA00553008000030FB000030B6
:10072800FA000030F9000030F800701C9C2B9D2B5B
:10073800A52B7408F8077508F93D7608FA3D77087F
:10074800FB3D0130F435F50DF60DF70D890BA62BA1
:100758000130F336F20CF10CF00C890BAD2B730859
:10076800720471047004031DBA2BBB2B992B7B08F0
:10077800F3007A08F2007908F1007808F000080020
:10078800720820004906031DCB2B71084806031D7B
:10079800CE2BCF2BD22BC801C901E32B48087307F6
:1007A800F400740886008701010884312724833106
:1007B80020004808013EC8000030493DC900080033
:1007C8007E340034303400346D34003479340034ED
:1007D800333400345B3400345F3400347034003414
:1007E8007F3400347B3400347008303E2000CE0063
:1007F8002E30CF007208303ED0007408303ED10051
:100808002030D2005630D300D4014E3008002200E8
:100818001E1023009E149E161F171E121E131E154F
:1008280019309B009D172100111608002100951210
:100838009511073095048B170B178B160B119E30EB
:10084800200095000800F000700823009A009E1C04
:100858002E2C2F2C2B2C0800FE0012001E00FE0B45
:10086800312C0034640080010131890B372C0034AD
:1008780082318B2284313F2C8031802821001D1445
:040888009D140800B3
:020000040001F9
:08000000FF3FFF3FFF3FFF3F00
:04000E00E43FFF3E8E
:00000001FF
