:08000000803102288731E92F4D
:1008A000640080010131890B512C0034FE001200DC
:1008B0001E00FE0B572C0034F000700823009A0035
:1008C0009E1C632C642C602C080022001E10230048
:1008D0009E149E161F171E121E131E1519309B0004
:1008E0009D1708007008303E2000E8007208303E76
:1008F000E9007408303EEA000A30EB006830080076
:100900007E340034303400346D34003479340034B3
:10091000333400345B3400345F34003470340034DA
:100920007F3400347B340034F400F201F301A72C4F
:10093000740886008701010884315C248431013009
:10094000F1007108F4070130F2070030F33D73083D
:10095000803AF10080307102031DB02C0430720225
:10096000031CB32CB42C982C080021001D149D14DA
:100970009D18BB2CBC2CB82C1B08F400F5011C08DE
:10098000F600F7017608F700F60174087607F9001B
:100990007508773DFA00FB01FA1BFB037B08FC009E
:1009A0001D107C08F3007B08F2007A08F10079083A
:1009B000F00008000030FB000030FA000030F900C1
:1009C0000030F800701CE52CE62CEE2C7408F807BB
:1009D0007508F93D7608FA3D7708FB3D0130F4359E
:1009E000F50DF60DF70D890BEF2C0130F336F20CF7
:1009F000F10CF00C890BF62C73087204710470046E
:100A0000031D032D042DE22C7B08F3007A08F2006D
:100A10007908F1007808F00008002000B4004830A0
:100A200086000030870020308400003085001430BC
:100A3000F00016001A00F00B192D3408860087010B
:100A40000135203E86008701403FDC00413FDD004C
:100A50003408023E860087010135203E860087016A
:100A6000403FDE00413FDF003408043E860087013E
:100A70000135203E86008701403FE000413FE10014
:100A80005C300800701B452D482D22000C164A2DA5
:100A900022000C12F01A4D2D502D22000C17522D51
:100AA00022000C13701A552D582D22008C175A2D28
:100AB00022008C13F0195D2D602D22000D14622D83
:100AC00022000D107019652D682D22008D156A2DDC
:100AD00022008D11F0186D2D702D22000D16722D33
:100AE00022000D1270080139F200F20EF20D0D080D
:100AF0007206DF3972068D000800FC30210099056E
:100B0000190887396838990023000C148C100C11CF
:100B10008C110C1221000C148C100C118C110C1265
:100B20000C138C1323008D100D118D110D128D12CD
:100B30000D138D1321000D108D140D118D110D123B
:100B40008D120D138D131D1022009717033097047B
:100B500021001E088F3910389E0083309D059E1796
:100B60001E1103309E0422008C140C158C150C12DF
:100B70000C138C130D108D110D128D128431652400
:100B80008531080085317D2585318431B524853155
:100B900073082000C5007208C4007108C300700803
:100BA000C2004508B9004408B8004308B70042082D
:100BB000B6008731052785312000C70047088531F9
:100BC0000D2585312000C6004708043E86008701B8
:100BD000403FF000413FF1004708023E8600870198
:100BE000403FF200413FF300470886008701403F45
:100BF000F400413FF500843172248531843194241E
:100C0000853120004608863154268531C52D803136
:100C10000228200030082F042E042D040319112E61
:100C2000122E4B2EB501B50A202E0130AD35AE0D7A
:100C3000AF0DB00D890B162E0130FD007D08B507F4
:100C4000B01F232E242E152E30083402031D322E01
:100C50002F083302031D322E2E083202031D322EBE
:100C60002D083102031C352E362E3E2E2D08B102E2
:100C70002E08B23B2F08B33B3008B43B0130B036EE
:100C8000AF0CAE0CAD0C890B3F2E0130B502031D2D
:100C90004A2E4B2E242E3408B0003308AF00320801
:100CA000AE003108AD000800F600F401F501760849
:100CB00086008701403FF000413FF1008531422529
:100CC000863122008C150D30F300FC30890B662E26
:100CD000F30B662E22008C117608023E86008701F7
:100CE000403FF000413FF10085314225863122002E
:100CF0000C150D30F300FC30890B7C2EF30B7C2E91
:100D000022000C117608043E86008701403FF00067
:100D1000413FF10085314225863122008C140D308F
:100D2000F300FC30890B922EF30B922E22008C10D4
:100D30000130F4070030F53D7508803AF30080304B
:100D40007302031DA52E0A307402031CA82EA92EBF
:100D5000572E080000302000AB000030AA00003001
:100D6000A9000030A800230822042104200403194C
:100D7000BA2EBB2EFC2EAC01AC0AC92E0130A03518
:100D8000A10DA20DA30D890BBF2E0130FC007C0824
:100D9000AC07A31FCC2ECD2EBE2E0130A835A90D39
:100DA000AA0DAB0D890BCE2E23082702031DE22EC0
:100DB00022082602031DE22E21082502031DE22E31
:100DC00020082402031CE52EE62EEF2E2008A402A4
:100DD0002108A53B2208A63B2308A73B2814013085
:100DE000A336A20CA10CA00C890BF02E0130AC0292
:100DF000031DFB2EFC2ECD2E2B08A3002A08A200DB
:100E00002908A1002808A000080000302000B00038
:100E10000030AF000030AE000A30AD000030F70007
:100E20000030F6000330F500E830F4003908F30034
:100E30003808F2003708F1003608F0008431DA246F
:100E4000873170082000BA007108BB007208BC002E
:100E50007308BD000A30BD36BC0CBB0CBA0C890B44
:100E60002B2F3D08B4003C08B3003B08B2003A0801
:100E7000B10086310926873120002E08E3002D08B5
:100E8000E2000030B0000030AF000030AE000A30A9
:100E9000AD000030A3000030A2000030A1000A30F5
:100EA000A0000030F7000030F6000330F500E83015
:100EB000F4003908F3003808F2003708F10036086A
:100EC000F0008431DA24873170082000BA007108FC
:100ED000BB007208BC007308BD000A30BD36BC0CF4
:100EE000BB0CBA0C890B6E2F3D08A7003C08A6006E
:100EF0003B08A5003A08A4008631AA2687312000C5
:100F00002308B4002208B3002108B2002008B10071
:100F100086310926873120002E08E5002D08E400DF
:100F20000030A3000030A2000030A1000A30A00071
:100F30000030F7000030F6000330F500E830F40030
:100F40003908F3003808F2003708F1003608F000DD
:100F50008431DA24873170082000BA007108BB00A0
:100F60007208BC007308BD000A30BD36BC0CBB0C57
:100F7000BA0C890BB52F3D08A7003C08A6003B081A
:100F8000A5003A08A4008631AA268731200023084C
:100F9000C1002208C0002108BF002008BE000030A8
:100FA000A3000030A2000030A1000A30A0004108D8
:100FB000A7004008A6003F08A5003E08A40086310F
:100FC000AA26873120002108E7002008E6006230C9
:100FD000080080308400843085004830860000306E
:100FE000870014308431562487315C30840000300F
:100FF0008500103084315024873120008531C22D86
:020000040001F9
:08000000FF3FFF3FFF3FFF3F00
:04000E00E43FFF3E8E
:00000001FF
